{
  "contractName": "Voting",
  "abi": [
    {
      "inputs": [
        {
          "internalType": "string",
          "name": "_question",
          "type": "string"
        }
      ],
      "stateMutability": "nonpayable",
      "type": "constructor"
    },
    {
      "anonymous": false,
      "inputs": [
        {
          "indexed": true,
          "internalType": "address",
          "name": "previousOwner",
          "type": "address"
        },
        {
          "indexed": true,
          "internalType": "address",
          "name": "newOwner",
          "type": "address"
        }
      ],
      "name": "OwnershipTransferred",
      "type": "event"
    },
    {
      "anonymous": false,
      "inputs": [
        {
          "indexed": false,
          "internalType": "uint256",
          "name": "proposalId",
          "type": "uint256"
        }
      ],
      "name": "ProposalRegistered",
      "type": "event"
    },
    {
      "anonymous": false,
      "inputs": [
        {
          "indexed": false,
          "internalType": "address",
          "name": "voter",
          "type": "address"
        },
        {
          "indexed": false,
          "internalType": "uint256",
          "name": "proposalId",
          "type": "uint256"
        }
      ],
      "name": "Voted",
      "type": "event"
    },
    {
      "anonymous": false,
      "inputs": [
        {
          "indexed": false,
          "internalType": "address",
          "name": "voterAddress",
          "type": "address"
        }
      ],
      "name": "VoterRegistered",
      "type": "event"
    },
    {
      "anonymous": false,
      "inputs": [
        {
          "indexed": false,
          "internalType": "enum Voting.WorkflowStatus",
          "name": "previousStatus",
          "type": "uint8"
        },
        {
          "indexed": false,
          "internalType": "enum Voting.WorkflowStatus",
          "name": "newStatus",
          "type": "uint8"
        }
      ],
      "name": "WorkflowStatusChange",
      "type": "event"
    },
    {
      "inputs": [],
      "name": "owner",
      "outputs": [
        {
          "internalType": "address",
          "name": "",
          "type": "address"
        }
      ],
      "stateMutability": "view",
      "type": "function",
      "constant": true
    },
    {
      "inputs": [],
      "name": "question",
      "outputs": [
        {
          "internalType": "string",
          "name": "",
          "type": "string"
        }
      ],
      "stateMutability": "view",
      "type": "function",
      "constant": true
    },
    {
      "inputs": [],
      "name": "renounceOwnership",
      "outputs": [],
      "stateMutability": "nonpayable",
      "type": "function"
    },
    {
      "inputs": [
        {
          "internalType": "address",
          "name": "newOwner",
          "type": "address"
        }
      ],
      "name": "transferOwnership",
      "outputs": [],
      "stateMutability": "nonpayable",
      "type": "function"
    },
    {
      "inputs": [],
      "name": "winningProposalID",
      "outputs": [
        {
          "internalType": "uint256",
          "name": "",
          "type": "uint256"
        }
      ],
      "stateMutability": "view",
      "type": "function",
      "constant": true
    },
    {
      "inputs": [],
      "name": "workflowStatus",
      "outputs": [
        {
          "internalType": "enum Voting.WorkflowStatus",
          "name": "",
          "type": "uint8"
        }
      ],
      "stateMutability": "view",
      "type": "function",
      "constant": true
    },
    {
      "inputs": [
        {
          "internalType": "address",
          "name": "_addr",
          "type": "address"
        }
      ],
      "name": "getVoter",
      "outputs": [
        {
          "components": [
            {
              "internalType": "bool",
              "name": "isRegistered",
              "type": "bool"
            },
            {
              "internalType": "bool",
              "name": "hasVoted",
              "type": "bool"
            },
            {
              "internalType": "uint256",
              "name": "votedProposalId",
              "type": "uint256"
            }
          ],
          "internalType": "struct Voting.Voter",
          "name": "",
          "type": "tuple"
        }
      ],
      "stateMutability": "view",
      "type": "function",
      "constant": true
    },
    {
      "inputs": [
        {
          "internalType": "uint256",
          "name": "_id",
          "type": "uint256"
        }
      ],
      "name": "getOneProposal",
      "outputs": [
        {
          "components": [
            {
              "internalType": "string",
              "name": "description",
              "type": "string"
            },
            {
              "internalType": "uint256",
              "name": "voteCount",
              "type": "uint256"
            }
          ],
          "internalType": "struct Voting.Proposal",
          "name": "",
          "type": "tuple"
        }
      ],
      "stateMutability": "view",
      "type": "function",
      "constant": true
    },
    {
      "inputs": [
        {
          "internalType": "address",
          "name": "_addr",
          "type": "address"
        }
      ],
      "name": "addVoter",
      "outputs": [],
      "stateMutability": "nonpayable",
      "type": "function"
    },
    {
      "inputs": [
        {
          "internalType": "string",
          "name": "_desc",
          "type": "string"
        }
      ],
      "name": "addProposal",
      "outputs": [],
      "stateMutability": "nonpayable",
      "type": "function"
    },
    {
      "inputs": [
        {
          "internalType": "uint256",
          "name": "_id",
          "type": "uint256"
        }
      ],
      "name": "setVote",
      "outputs": [],
      "stateMutability": "nonpayable",
      "type": "function"
    },
    {
      "inputs": [],
      "name": "startProposalsRegistering",
      "outputs": [],
      "stateMutability": "nonpayable",
      "type": "function"
    },
    {
      "inputs": [],
      "name": "endProposalsRegistering",
      "outputs": [],
      "stateMutability": "nonpayable",
      "type": "function"
    },
    {
      "inputs": [],
      "name": "startVotingSession",
      "outputs": [],
      "stateMutability": "nonpayable",
      "type": "function"
    },
    {
      "inputs": [],
      "name": "endVotingSession",
      "outputs": [],
      "stateMutability": "nonpayable",
      "type": "function"
    },
    {
      "inputs": [],
      "name": "tallyVotes",
      "outputs": [],
      "stateMutability": "nonpayable",
      "type": "function"
    }
  ],
  "bytecode": "0x60806040523480156200001157600080fd5b506040516200168a3803806200168a8339810160408190526200003491620000bb565b6200003f3362000055565b60026200004d82826200021f565b5050620002eb565b600080546001600160a01b038381166001600160a01b0319831681178455604051919092169283917f8be0079c531659141344cd1fd0a4f28419497f9722a3daafe3b4186f6b6457e09190a35050565b634e487b7160e01b600052604160045260246000fd5b60006020808385031215620000cf57600080fd5b82516001600160401b0380821115620000e757600080fd5b818501915085601f830112620000fc57600080fd5b815181811115620001115762000111620000a5565b604051601f8201601f19908116603f011681019083821181831017156200013c576200013c620000a5565b8160405282815288868487010111156200015557600080fd5b600093505b828410156200017957848401860151818501870152928501926200015a565b600086848301015280965050505050505092915050565b600181811c90821680620001a557607f821691505b602082108103620001c657634e487b7160e01b600052602260045260246000fd5b50919050565b601f8211156200021a57600081815260208120601f850160051c81016020861015620001f55750805b601f850160051c820191505b81811015620002165782815560010162000201565b5050505b505050565b81516001600160401b038111156200023b576200023b620000a5565b62000253816200024c845462000190565b84620001cc565b602080601f8311600181146200028b5760008415620002725750858301515b600019600386901b1c1916600185901b17855562000216565b600085815260208120601f198616915b82811015620002bc578886015182559484019460019091019084016200029b565b5085821015620002db5787850151600019600388901b60f8161c191681555b5050505050600190811b01905550565b61138f80620002fb6000396000f3fe608060405234801561001057600080fd5b50600436106101005760003560e01c8063a7bfab1611610097578063d4f50f9811610066578063d4f50f98146101df578063ee74c67814610218578063f2fde38b14610220578063f4ab9adf1461023357600080fd5b8063a7bfab16146101b0578063bdc01431146101b8578063c7038a4e146101cf578063c88af42f146101d757600080fd5b8063715018a6116100d3578063715018a6146101535780638da5cb5b1461015b578063a1edffa214610176578063a2788cce1461019057600080fd5b8063230796ae146101055780632fdae3c51461011a578063378a21781461012d5780633fad9ae014610135575b600080fd5b610118610113366004610f39565b610246565b005b610118610128366004610f52565b6103f2565b610118610664565b61013d61078f565b60405161014a919061100a565b60405180910390f35b61011861081d565b6000546040516001600160a01b03909116815260200161014a565b6003546101839060ff1681565b60405161014a919061105c565b6101a361019e366004610f39565b610831565b60405161014a9190611070565b610118610944565b6101c160015481565b60405190815260200161014a565b6101186109b8565b610118610af4565b6101f26101ed3660046110a2565b610ba3565b60408051825115158152602080840151151590820152918101519082015260600161014a565b610118610c38565b61011861022e3660046110a2565b610ce6565b6101186102413660046110a2565b610d5f565b3360009081526005602052604090205460ff1661027e5760405162461bcd60e51b8152600401610275906110cb565b60405180910390fd5b6003805460ff16600581111561029657610296611024565b146102b35760405162461bcd60e51b8152600401610275906110f7565b33600090815260056020526040902054610100900460ff1615156001036103155760405162461bcd60e51b8152602060048201526016602482015275165bdd481a185d9948185b1c9958591e481d9bdd195960521b6044820152606401610275565b600454811061035b5760405162461bcd60e51b8152602060048201526012602482015271141c9bdc1bdcd85b081b9bdd08199bdd5b9960721b6044820152606401610275565b33600090815260056020526040902060018101829055805461ff001916610100179055600480548290811061039257610392611138565b6000918252602082206001600290920201018054916103b083611164565b909155505060408051338152602081018390527f4d99b957a2bc29a30ebd96a7be8e68fe50a3c701db28a91436490b7d53870ca491015b60405180910390a150565b3360009081526005602052604090205460ff166104215760405162461bcd60e51b8152600401610275906110cb565b6004546103e8101561046a5760405162461bcd60e51b8152602060048201526012602482015271546f6f206d616e792070726f706f73616c7360701b6044820152606401610275565b600160035460ff16600581111561048357610483611024565b146104d05760405162461bcd60e51b815260206004820152601d60248201527f50726f706f73616c7320617265206e6f7420616c6c6f776564207965740000006044820152606401610275565b6040516020016104eb90602080825260009082015260400190565b60405160208183030381529060405280519060200120828260405160200161051492919061117d565b60405160208183030381529060405280519060200120036105835760405162461bcd60e51b815260206004820152602360248201527f566f7573206e6520706f7576657a20706173206e65207269656e2070726f706f60448201526239b2b960e91b6064820152608401610275565b60408051808201909152606081526000602082015282828080601f0160208091040260200160405190810160405280939291908181526020018383808284376000920182905250938552505060048054600181018255925250815182916002027f8a35acfbc15ff81a39ae7d344fd709f28e8600b4aa8c65c6b64bfe7fe36bd19b01908190610612908261124b565b50602091909101516001918201556004547f92e393e9b54e2f801d3ea4beb0c5e71a21cc34a5d34b77d0fb8a3aa1650dc18f9161064e9161130b565b60405190815260200160405180910390a1505050565b61066c610e8f565b600460035460ff16600581111561068557610685611024565b146106e55760405162461bcd60e51b815260206004820152602a60248201527f43757272656e7420737461747573206973206e6f7420766f74696e67207365736044820152691cda5bdb88195b99195960b21b6064820152608401610275565b6000805b600454811015610759576004828154811061070657610706611138565b9060005260206000209060020201600101546004828154811061072b5761072b611138565b9060005260206000209060020201600101541115610747578091505b8061075181611164565b9150506106e9565b5060018190556003805460ff1916600590811790915560405160008051602061133a833981519152916103e7916004919061131e565b6002805461079c906111c2565b80601f01602080910402602001604051908101604052809291908181526020018280546107c8906111c2565b80156108155780601f106107ea57610100808354040283529160200191610815565b820191906000526020600020905b8154815290600101906020018083116107f857829003601f168201915b505050505081565b610825610e8f565b61082f6000610ee9565b565b6040805180820190915260608152600060208201523360009081526005602052604090205460ff166108755760405162461bcd60e51b8152600401610275906110cb565b6004828154811061088857610888611138565b90600052602060002090600202016040518060400160405290816000820180546108b1906111c2565b80601f01602080910402602001604051908101604052809291908181526020018280546108dd906111c2565b801561092a5780601f106108ff5761010080835404028352916020019161092a565b820191906000526020600020905b81548152906001019060200180831161090d57829003601f168201915b505050505081526020016001820154815250509050919050565b61094c610e8f565b6003805460ff16600581111561096457610964611024565b146109815760405162461bcd60e51b8152600401610275906110f7565b6003805460ff19166004908117825560405160008051602061133a833981519152926109ae92909161131e565b60405180910390a1565b6109c0610e8f565b600060035460ff1660058111156109d9576109d9611024565b14610a385760405162461bcd60e51b815260206004820152602960248201527f5265676973746572696e672070726f706f73616c732063616e742062652073746044820152686172746564206e6f7760b81b6064820152608401610275565b600380546001919060ff19168280021790555060408051808201909152606081526000602082015260408051808201909152600781526647454e4553495360c81b6020820152815260048054600181018255600091909152815182916002027f8a35acfbc15ff81a39ae7d344fd709f28e8600b4aa8c65c6b64bfe7fe36bd19b01908190610ac6908261124b565b5060208201518160010155505060008051602061133a833981519152600060016040516103e792919061131e565b610afc610e8f565b600160035460ff166005811115610b1557610b15611024565b14610b735760405162461bcd60e51b815260206004820152602860248201527f5265676973746572696e672070726f706f73616c7320686176656e74207374616044820152671c9d1959081e595d60c21b6064820152608401610275565b6003805460ff1916600290811790915560405160008051602061133a833981519152916109ae916001919061131e565b604080516060810182526000808252602080830182905282840182905233825260059052919091205460ff16610beb5760405162461bcd60e51b8152600401610275906110cb565b506001600160a01b03166000908152600560209081526040918290208251606081018452815460ff8082161515835261010090910416151592810192909252600101549181019190915290565b610c40610e8f565b600260035460ff166005811115610c5957610c59611024565b14610cba5760405162461bcd60e51b815260206004820152602b60248201527f5265676973746572696e672070726f706f73616c73207068617365206973206e60448201526a1bdd08199a5b9a5cda195960aa1b6064820152608401610275565b6003805460ff19168117815560405160008051602061133a833981519152916109ae916002919061131e565b610cee610e8f565b6001600160a01b038116610d535760405162461bcd60e51b815260206004820152602660248201527f4f776e61626c653a206e6577206f776e657220697320746865207a65726f206160448201526564647265737360d01b6064820152608401610275565b610d5c81610ee9565b50565b610d67610e8f565b600060035460ff166005811115610d8057610d80611024565b14610dd95760405162461bcd60e51b815260206004820152602360248201527f566f7465727320726567697374726174696f6e206973206e6f74206f70656e206044820152621e595d60ea1b6064820152608401610275565b6001600160a01b03811660009081526005602052604090205460ff161515600103610e3b5760405162461bcd60e51b8152602060048201526012602482015271105b1c9958591e481c9959da5cdd195c995960721b6044820152606401610275565b6001600160a01b038116600081815260056020908152604091829020805460ff1916600117905590519182527fb6be2187d059cc2a55fe29e0e503b566e1e0f8c8780096e185429350acffd3dd91016103e7565b6000546001600160a01b0316331461082f5760405162461bcd60e51b815260206004820181905260248201527f4f776e61626c653a2063616c6c6572206973206e6f7420746865206f776e65726044820152606401610275565b600080546001600160a01b038381166001600160a01b0319831681178455604051919092169283917f8be0079c531659141344cd1fd0a4f28419497f9722a3daafe3b4186f6b6457e09190a35050565b600060208284031215610f4b57600080fd5b5035919050565b60008060208385031215610f6557600080fd5b823567ffffffffffffffff80821115610f7d57600080fd5b818501915085601f830112610f9157600080fd5b813581811115610fa057600080fd5b866020828501011115610fb257600080fd5b60209290920196919550909350505050565b6000815180845260005b81811015610fea57602081850181015186830182015201610fce565b506000602082860101526020601f19601f83011685010191505092915050565b60208152600061101d6020830184610fc4565b9392505050565b634e487b7160e01b600052602160045260246000fd5b6006811061105857634e487b7160e01b600052602160045260246000fd5b9052565b6020810161106a828461103a565b92915050565b60208152600082516040602084015261108c6060840182610fc4565b9050602084015160408401528091505092915050565b6000602082840312156110b457600080fd5b81356001600160a01b038116811461101d57600080fd5b6020808252601290820152712cb7ba93b932903737ba1030903b37ba32b960711b604082015260600190565b60208082526021908201527f566f74696e672073657373696f6e20686176656e7420737461727465642079656040820152601d60fa1b606082015260800190565b634e487b7160e01b600052603260045260246000fd5b634e487b7160e01b600052601160045260246000fd5b6000600182016111765761117661114e565b5060010190565b60208152816020820152818360408301376000818301604090810191909152601f909201601f19160101919050565b634e487b7160e01b600052604160045260246000fd5b600181811c908216806111d657607f821691505b6020821081036111f657634e487b7160e01b600052602260045260246000fd5b50919050565b601f82111561124657600081815260208120601f850160051c810160208610156112235750805b601f850160051c820191505b818110156112425782815560010161122f565b5050505b505050565b815167ffffffffffffffff811115611265576112656111ac565b6112798161127384546111c2565b846111fc565b602080601f8311600181146112ae57600084156112965750858301515b600019600386901b1c1916600185901b178555611242565b600085815260208120601f198616915b828110156112dd578886015182559484019460019091019084016112be565b50858210156112fb5787850151600019600388901b60f8161c191681555b5050505050600190811b01905550565b8181038181111561106a5761106a61114e565b6040810161132c828561103a565b61101d602083018461103a56fe0a97a4ee45751e2abf3e4fc8946939630b11b371ea8ae39ccdc3056e98f5cc3fa26469706673582212200396d71147f541d0418c64ab0cc37412d39e0010ad9747c7e178439e699ea5ed64736f6c63430008110033",
  "immutableReferences": {},
  "source": "// SPDX-License-Identifier: MIT\npragma solidity 0.8.17;\nimport '../node_modules/@openzeppelin/contracts/access/Ownable.sol';\n\ncontract Voting is Ownable {\n  uint256 public winningProposalID;\n  string public question;\n\n  struct Voter {\n    bool isRegistered;\n    bool hasVoted;\n    uint256 votedProposalId;\n  }\n\n  struct Proposal {\n    string description;\n    uint256 voteCount;\n  }\n\n  enum WorkflowStatus {\n    RegisteringVoters,\n    ProposalsRegistrationStarted,\n    ProposalsRegistrationEnded,\n    VotingSessionStarted,\n    VotingSessionEnded,\n    VotesTallied\n  }\n\n  WorkflowStatus public workflowStatus;\n  Proposal[] proposalsArray;\n  mapping(address => Voter) voters;\n\n  event VoterRegistered(address voterAddress);\n  event WorkflowStatusChange(WorkflowStatus previousStatus, WorkflowStatus newStatus);\n  event ProposalRegistered(uint256 proposalId);\n  event Voted(address voter, uint256 proposalId);\n\n  modifier onlyVoters() {\n    require(voters[msg.sender].isRegistered, \"You're not a voter\");\n    _;\n  }\n\n  constructor(string memory _question) Ownable() {\n    question = _question;\n  }\n\n  // on peut faire un modifier pour les tats\n\n  // ::::::::::::: GETTERS ::::::::::::: //\n\n  function getVoter(address _addr) external view onlyVoters returns (Voter memory) {\n    return voters[_addr];\n  }\n\n  function getOneProposal(uint256 _id) external view onlyVoters returns (Proposal memory) {\n    return proposalsArray[_id];\n  }\n\n  // ::::::::::::: REGISTRATION ::::::::::::: //\n\n  function addVoter(address _addr) external onlyOwner {\n    require(\n      workflowStatus == WorkflowStatus.RegisteringVoters,\n      'Voters registration is not open yet'\n    );\n    require(voters[_addr].isRegistered != true, 'Already registered');\n\n    voters[_addr].isRegistered = true;\n    emit VoterRegistered(_addr);\n  }\n\n  // ::::::::::::: PROPOSAL ::::::::::::: //\n\n  function addProposal(string calldata _desc) external onlyVoters {\n    /* Fixing a potential DOS if there are too many proposals in the array. */\n    require(proposalsArray.length <= 1000, 'Too many proposals');\n    require(\n      workflowStatus == WorkflowStatus.ProposalsRegistrationStarted,\n      'Proposals are not allowed yet'\n    );\n    require(\n      keccak256(abi.encode(_desc)) != keccak256(abi.encode('')),\n      'Vous ne pouvez pas ne rien proposer'\n    ); // facultatif\n    // voir que desc est different des autres\n\n    Proposal memory proposal;\n    proposal.description = _desc;\n    proposalsArray.push(proposal);\n    emit ProposalRegistered(proposalsArray.length - 1);\n  }\n\n  // ::::::::::::: VOTE ::::::::::::: //\n\n  function setVote(uint256 _id) external onlyVoters {\n    require(\n      workflowStatus == WorkflowStatus.VotingSessionStarted,\n      'Voting session havent started yet'\n    );\n    require(voters[msg.sender].hasVoted != true, 'You have already voted');\n    require(_id < proposalsArray.length, 'Proposal not found'); // pas oblig, et pas besoin du >0 car uint\n\n    voters[msg.sender].votedProposalId = _id;\n    voters[msg.sender].hasVoted = true;\n    proposalsArray[_id].voteCount++;\n\n    emit Voted(msg.sender, _id);\n  }\n\n  // ::::::::::::: STATE ::::::::::::: //\n\n  function startProposalsRegistering() external onlyOwner {\n    require(\n      workflowStatus == WorkflowStatus.RegisteringVoters,\n      'Registering proposals cant be started now'\n    );\n    workflowStatus = WorkflowStatus.ProposalsRegistrationStarted;\n\n    Proposal memory proposal;\n    proposal.description = 'GENESIS';\n    proposalsArray.push(proposal);\n\n    emit WorkflowStatusChange(\n      WorkflowStatus.RegisteringVoters,\n      WorkflowStatus.ProposalsRegistrationStarted\n    );\n  }\n\n  function endProposalsRegistering() external onlyOwner {\n    require(\n      workflowStatus == WorkflowStatus.ProposalsRegistrationStarted,\n      'Registering proposals havent started yet'\n    );\n    workflowStatus = WorkflowStatus.ProposalsRegistrationEnded;\n    emit WorkflowStatusChange(\n      WorkflowStatus.ProposalsRegistrationStarted,\n      WorkflowStatus.ProposalsRegistrationEnded\n    );\n  }\n\n  function startVotingSession() external onlyOwner {\n    require(\n      workflowStatus == WorkflowStatus.ProposalsRegistrationEnded,\n      'Registering proposals phase is not finished'\n    );\n    workflowStatus = WorkflowStatus.VotingSessionStarted;\n    emit WorkflowStatusChange(\n      WorkflowStatus.ProposalsRegistrationEnded,\n      WorkflowStatus.VotingSessionStarted\n    );\n  }\n\n  function endVotingSession() external onlyOwner {\n    require(\n      workflowStatus == WorkflowStatus.VotingSessionStarted,\n      'Voting session havent started yet'\n    );\n    workflowStatus = WorkflowStatus.VotingSessionEnded;\n    emit WorkflowStatusChange(\n      WorkflowStatus.VotingSessionStarted,\n      WorkflowStatus.VotingSessionEnded\n    );\n  }\n\n  function tallyVotes() external onlyOwner {\n    require(\n      workflowStatus == WorkflowStatus.VotingSessionEnded,\n      'Current status is not voting session ended'\n    );\n    uint256 _winningProposalId;\n    for (uint256 p = 0; p < proposalsArray.length; p++) {\n      if (proposalsArray[p].voteCount > proposalsArray[_winningProposalId].voteCount) {\n        _winningProposalId = p;\n      }\n    }\n    winningProposalID = _winningProposalId;\n\n    workflowStatus = WorkflowStatus.VotesTallied;\n    emit WorkflowStatusChange(WorkflowStatus.VotingSessionEnded, WorkflowStatus.VotesTallied);\n  }\n}\n",
  "sourcePath": "/Users/user/Cizeon/github/alyra/03 - Frontend/truffle/contracts/Voting.sol",
  "compiler": {
    "name": "solc",
    "version": "0.8.17+commit.8df45f5f.Emscripten.clang"
  },
  "schemaVersion": "3.4.8",
  "updatedAt": "2022-11-21T15:03:39.047Z",
  "networkType": "ethereum",
  "devdoc": {
    "kind": "dev",
    "methods": {
      "owner()": {
        "details": "Returns the address of the current owner."
      },
      "renounceOwnership()": {
        "details": "Leaves the contract without owner. It will not be possible to call `onlyOwner` functions anymore. Can only be called by the current owner. NOTE: Renouncing ownership will leave the contract without an owner, thereby removing any functionality that is only available to the owner."
      },
      "transferOwnership(address)": {
        "details": "Transfers ownership of the contract to a new account (`newOwner`). Can only be called by the current owner."
      }
    },
    "version": 1
  },
  "userdoc": {
    "kind": "user",
    "methods": {},
    "version": 1
  }
}